{
	"data": {
		"bytecode": {
			"linkReferences": {},
			"object": "608060405234801561001057600080fd5b506102ff806100206000396000f3fe608060405234801561001057600080fd5b50600436106100575760003560e01c806367cb61b61461005c578063694ebe4f1461007a578063843f72581461008457806391ff2c86146100a2578063db39b915146100ac575b600080fd5b6100646100b6565b6040516100719190610221565b60405180910390f35b6100826100cc565b005b61008c61011e565b604051610099919061023c565b60405180910390f35b6100aa61015f565b005b6100b46101b1565b005b60008060009054906101000a900460ff16905090565b60026000806101000a81548160ff02191690836002811115610117577f4e487b7100000000000000000000000000000000000000000000000000000000600052602160045260246000fd5b0217905550565b60006001600281111561015a577f4e487b7100000000000000000000000000000000000000000000000000000000600052602160045260246000fd5b905090565b60008060006101000a81548160ff021916908360028111156101aa577f4e487b7100000000000000000000000000000000000000000000000000000000600052602160045260246000fd5b0217905550565b60016000806101000a81548160ff021916908360028111156101fc577f4e487b7100000000000000000000000000000000000000000000000000000000600052602160045260246000fd5b0217905550565b61020c81610274565b82525050565b61021b8161026a565b82525050565b60006020820190506102366000830184610203565b92915050565b60006020820190506102516000830184610212565b92915050565b6000819050610265826102b5565b919050565b6000819050919050565b600061027f82610257565b9050919050565b7f4e487b7100000000000000000000000000000000000000000000000000000000600052602160045260246000fd5b600381106102c6576102c5610286565b5b5056fea2646970667358221220334f4b40f080ec5e63a23bcf68284d32b12f7bc1a322463501a4483847fa770f64736f6c63430008000033",
			"opcodes": "PUSH1 0x80 PUSH1 0x40 MSTORE CALLVALUE DUP1 ISZERO PUSH2 0x10 JUMPI PUSH1 0x0 DUP1 REVERT JUMPDEST POP PUSH2 0x2FF DUP1 PUSH2 0x20 PUSH1 0x0 CODECOPY PUSH1 0x0 RETURN INVALID PUSH1 0x80 PUSH1 0x40 MSTORE CALLVALUE DUP1 ISZERO PUSH2 0x10 JUMPI PUSH1 0x0 DUP1 REVERT JUMPDEST POP PUSH1 0x4 CALLDATASIZE LT PUSH2 0x57 JUMPI PUSH1 0x0 CALLDATALOAD PUSH1 0xE0 SHR DUP1 PUSH4 0x67CB61B6 EQ PUSH2 0x5C JUMPI DUP1 PUSH4 0x694EBE4F EQ PUSH2 0x7A JUMPI DUP1 PUSH4 0x843F7258 EQ PUSH2 0x84 JUMPI DUP1 PUSH4 0x91FF2C86 EQ PUSH2 0xA2 JUMPI DUP1 PUSH4 0xDB39B915 EQ PUSH2 0xAC JUMPI JUMPDEST PUSH1 0x0 DUP1 REVERT JUMPDEST PUSH2 0x64 PUSH2 0xB6 JUMP JUMPDEST PUSH1 0x40 MLOAD PUSH2 0x71 SWAP2 SWAP1 PUSH2 0x221 JUMP JUMPDEST PUSH1 0x40 MLOAD DUP1 SWAP2 SUB SWAP1 RETURN JUMPDEST PUSH2 0x82 PUSH2 0xCC JUMP JUMPDEST STOP JUMPDEST PUSH2 0x8C PUSH2 0x11E JUMP JUMPDEST PUSH1 0x40 MLOAD PUSH2 0x99 SWAP2 SWAP1 PUSH2 0x23C JUMP JUMPDEST PUSH1 0x40 MLOAD DUP1 SWAP2 SUB SWAP1 RETURN JUMPDEST PUSH2 0xAA PUSH2 0x15F JUMP JUMPDEST STOP JUMPDEST PUSH2 0xB4 PUSH2 0x1B1 JUMP JUMPDEST STOP JUMPDEST PUSH1 0x0 DUP1 PUSH1 0x0 SWAP1 SLOAD SWAP1 PUSH2 0x100 EXP SWAP1 DIV PUSH1 0xFF AND SWAP1 POP SWAP1 JUMP JUMPDEST PUSH1 0x2 PUSH1 0x0 DUP1 PUSH2 0x100 EXP DUP2 SLOAD DUP2 PUSH1 0xFF MUL NOT AND SWAP1 DUP4 PUSH1 0x2 DUP2 GT ISZERO PUSH2 0x117 JUMPI PUSH32 0x4E487B7100000000000000000000000000000000000000000000000000000000 PUSH1 0x0 MSTORE PUSH1 0x21 PUSH1 0x4 MSTORE PUSH1 0x24 PUSH1 0x0 REVERT JUMPDEST MUL OR SWAP1 SSTORE POP JUMP JUMPDEST PUSH1 0x0 PUSH1 0x1 PUSH1 0x2 DUP2 GT ISZERO PUSH2 0x15A JUMPI PUSH32 0x4E487B7100000000000000000000000000000000000000000000000000000000 PUSH1 0x0 MSTORE PUSH1 0x21 PUSH1 0x4 MSTORE PUSH1 0x24 PUSH1 0x0 REVERT JUMPDEST SWAP1 POP SWAP1 JUMP JUMPDEST PUSH1 0x0 DUP1 PUSH1 0x0 PUSH2 0x100 EXP DUP2 SLOAD DUP2 PUSH1 0xFF MUL NOT AND SWAP1 DUP4 PUSH1 0x2 DUP2 GT ISZERO PUSH2 0x1AA JUMPI PUSH32 0x4E487B7100000000000000000000000000000000000000000000000000000000 PUSH1 0x0 MSTORE PUSH1 0x21 PUSH1 0x4 MSTORE PUSH1 0x24 PUSH1 0x0 REVERT JUMPDEST MUL OR SWAP1 SSTORE POP JUMP JUMPDEST PUSH1 0x1 PUSH1 0x0 DUP1 PUSH2 0x100 EXP DUP2 SLOAD DUP2 PUSH1 0xFF MUL NOT AND SWAP1 DUP4 PUSH1 0x2 DUP2 GT ISZERO PUSH2 0x1FC JUMPI PUSH32 0x4E487B7100000000000000000000000000000000000000000000000000000000 PUSH1 0x0 MSTORE PUSH1 0x21 PUSH1 0x4 MSTORE PUSH1 0x24 PUSH1 0x0 REVERT JUMPDEST MUL OR SWAP1 SSTORE POP JUMP JUMPDEST PUSH2 0x20C DUP2 PUSH2 0x274 JUMP JUMPDEST DUP3 MSTORE POP POP JUMP JUMPDEST PUSH2 0x21B DUP2 PUSH2 0x26A JUMP JUMPDEST DUP3 MSTORE POP POP JUMP JUMPDEST PUSH1 0x0 PUSH1 0x20 DUP3 ADD SWAP1 POP PUSH2 0x236 PUSH1 0x0 DUP4 ADD DUP5 PUSH2 0x203 JUMP JUMPDEST SWAP3 SWAP2 POP POP JUMP JUMPDEST PUSH1 0x0 PUSH1 0x20 DUP3 ADD SWAP1 POP PUSH2 0x251 PUSH1 0x0 DUP4 ADD DUP5 PUSH2 0x212 JUMP JUMPDEST SWAP3 SWAP2 POP POP JUMP JUMPDEST PUSH1 0x0 DUP2 SWAP1 POP PUSH2 0x265 DUP3 PUSH2 0x2B5 JUMP JUMPDEST SWAP2 SWAP1 POP JUMP JUMPDEST PUSH1 0x0 DUP2 SWAP1 POP SWAP2 SWAP1 POP JUMP JUMPDEST PUSH1 0x0 PUSH2 0x27F DUP3 PUSH2 0x257 JUMP JUMPDEST SWAP1 POP SWAP2 SWAP1 POP JUMP JUMPDEST PUSH32 0x4E487B7100000000000000000000000000000000000000000000000000000000 PUSH1 0x0 MSTORE PUSH1 0x21 PUSH1 0x4 MSTORE PUSH1 0x24 PUSH1 0x0 REVERT JUMPDEST PUSH1 0x3 DUP2 LT PUSH2 0x2C6 JUMPI PUSH2 0x2C5 PUSH2 0x286 JUMP JUMPDEST JUMPDEST POP JUMP INVALID LOG2 PUSH5 0x6970667358 0x22 SLT KECCAK256 CALLER 0x4F 0x4B BLOCKHASH CREATE DUP1 0xEC 0x5E PUSH4 0xA23BCF68 0x28 0x4D ORIGIN 0xB1 0x2F PUSH28 0xC1A322463501A4483847FA770F64736F6C6343000800003300000000 "
		},
		"gasEstimates": {
			"creation": {
				"codeDepositCost": "153400",
				"executionCost": "196",
				"totalCost": "153596"
			},
			"external": {
				"getChoice()": "1246",
				"getDefaultChoice()": "385",
				"setLarge()": "21031",
				"setMedium()": "21097",
				"setSmall()": "21075"
			}
		},
		"methodIdentifiers": {
			"getChoice()": "67cb61b6",
			"getDefaultChoice()": "843f7258",
			"setLarge()": "694ebe4f",
			"setMedium()": "db39b915",
			"setSmall()": "91ff2c86"
		}
	},
	"abi": [
		{
			"inputs": [],
			"name": "getChoice",
			"outputs": [
				{
					"internalType": "enum test.FreshJuiceSize",
					"name": "",
					"type": "uint8"
				}
			],
			"stateMutability": "view",
			"type": "function"
		},
		{
			"inputs": [],
			"name": "getDefaultChoice",
			"outputs": [
				{
					"internalType": "uint256",
					"name": "",
					"type": "uint256"
				}
			],
			"stateMutability": "pure",
			"type": "function"
		},
		{
			"inputs": [],
			"name": "setLarge",
			"outputs": [],
			"stateMutability": "nonpayable",
			"type": "function"
		},
		{
			"inputs": [],
			"name": "setMedium",
			"outputs": [],
			"stateMutability": "nonpayable",
			"type": "function"
		},
		{
			"inputs": [],
			"name": "setSmall",
			"outputs": [],
			"stateMutability": "nonpayable",
			"type": "function"
		}
	]
}